:040000008031132810
:100008007E14803120007F08F1000B1D0E280B1193
:100018008031BB2071082000FF007E10090080316C
:1000280015288031CF208031FB00A7308400803034
:100038008500203086000030870014308031C320CE
:100048008031F901FA013430840000308500103025
:100058008031C9207E10200080316928F8002200F4
:100068000E08F2007208F40021000E08F20072086F
:10007800F50020000E08F2007208F60078082F3EFE
:10008800860087010108F2007208F70078082F3E01
:10009800860087010108F30022008E000E08F20096
:1000A8007208F40021000E08F2007208F500200022
:1000B8000E08F2007208F60078082F3E86008701C5
:1000C8000108F2007208F70008003C30210099008E
:1000D8008031902080310230210095008B160B1161
:1000E8000B178B1700308031322080310830200008
:1000F800C500C930C400C40B7F28C50B7F28003257
:10010800803020008D060E120330C400C40B8A28EC
:10011800003220000E167A2820000D170D1F972890
:1001280020000E16992820000E1221000E128E12A1
:100138008E110E138E130D138D138D120D128C123A
:100148008031D020080000340134033407340F34E0
:1001580000341034003410341034003400341034B7
:1001680010343034003480344034C034C834403023
:1001780020008D061508F0007008FB000800FE003E
:1001880012001E00FE0BC4280034640080010131F7
:0A019800890BCA280034A5340800C2
:020000040001F9
:04000E00E4CFCFDF8D
:00000001FF
